:04000000FEEF3FF0E0
:10060000004D656E753A20312E485620322E4C56DC
:1006100020332E49004452592052554E00333A4956
:10062000202000313A48562000323A4C56200048EB
:10063000454C4C4F00001250800B1B6E1250122480
:10064000216E11AE26EF03F028EF03F029EF03F03F
:1006500021802150D8B42FEF03F031EF03F044EFA5
:1006600003F02128D8A437EF03F039EF03F041EF6E
:1006700003F0000E0F6E000E106E000E116E000ED5
:10068000126E118E4CEF03F0000E0F6E000E106E06
:10069000000E116E000E126E1650800B1B1A1650B3
:1006A0001624206E15AE57EF03F059EF03F05AEF02
:1006B00003F020802050D8B460EF03F062EF03F025
:1006C00075EF03F02028D8A468EF03F06AEF03F079
:1006D00072EF03F0000E136E000E146E000E156E16
:1006E000000E166E158E7DEF03F0000E136E000ED9
:1006F000146E000E156E000E166E2050D8B483EFE7
:1007000003F085EF03F08DEF03F02150D8A48BEFB9
:1007100003F08DEF03F097EF03F0000E0F6E000E65
:10072000106E000E116E000E126E2DEF05F01550BA
:100730000F02F3CF26F0F4CF27F026501C6E1D6A6F
:100740001E6A1F6A2750226E236A246A256A145083
:100750001002F3CF26F0F4CF27F026501C26000E0F
:100760001D221E221F2227502226000E2322242271
:10077000252213501102F3CF26F0F4CF27F0265094
:100780001C26000E1D221E221F2227502226000E8C
:100790002322242225221EC01FF01DC01EF01CC0D3
:1007A0001DF01C6A13501002F3CF26F0F4CF27F08F
:1007B00026501C2627501D22000E1E22000E1F222E
:1007C00014500F02F3CF26F0F4CF27F026501C264A
:1007D00027501D22000E1E22000E1F221EC01FF0D9
:1007E0001DC01EF01CC01DF01C6A13500F02F3CF79
:1007F00026F0F4CF27F026501C2627501D22000E8D
:100800001E22000E1F2215501002F3CF26F0F4CF47
:1008100027F02650222627502322000E2422000EE5
:10082000252214501102F3CF26F0F4CF27F02650E2
:10083000222627502322000E2422000E25221550A6
:100840001102F3CF26F0F4CF27F02650176E275071
:10085000186E196A1A6A19C01AF018C019F017C070
:1008600018F0176A175022261850232219502422F4
:100870001A5025221CC017F01DC018F01EC019F018
:100880001FC01AF0190E4AEF04F0D8901A3219322C
:1008900018321732E82E45EF04F017502226185070
:1008A0002322195024221A5025221EC01FF01DC0D9
:1008B0001EF01CC01DF01C6A205021C017F0186AE1
:1008C0001726000E1822820E1724266EFF0E1820FF
:1008D000276E80EF04F0D890223623362436253652
:1008E0001FAE75EF04F077EF04F078EF04F022808C
:1008F000D8901C361D361E361F362606D8A0270671
:1009000024AE85EF04F087EF04F06BEF04F0206A6B
:100910001FAE8DEF04F08FEF04F0B3EF04F0FF0E85
:100920001C14176EFF0E1D14186EFF0E1E14196E88
:100930007F0E1F141A6E1750181019101A10D8B401
:10094000A4EF04F0A6EF04F0AAEF04F0010E206E6D
:10095000B3EF04F022A0AFEF04F0B1EF04F0B3EF77
:1009600004F0A6EF04F02050D8B4B9EF04F0BBEFC8
:1009700004F0DFEF04F0010E2226000E23222422D1
:10098000252225A0C6EF04F0C8EF04F0DFEF04F045
:1009900022C017F023C018F024C019F025C01AF0A7
:1009A0001A341A3219321832173217C022F018C00E
:1009B00023F019C024F01AC025F0264A272A27BEA2
:1009C000EAEF04F0275008E12628D8A0EAEF04F067
:1009D000ECEF04F0F6EF04F0000E226E000E236E32
:1009E000800E246E7F0E256E23EF05F027BE03EFE9
:1009F00005F0275006E12604D8B001EF05F003EF1B
:100A000005F00EEF05F0000E226E000E236E000EB4
:100A1000246E000E256E1B6A23EF05F026C021F020
:100A2000FF0E2216FF0E23167F0E2416000E25162B
:100A300021A01DEF05F01FEF05F020EF05F0248E3B
:100A4000D8902130256E1B50251222C00FF023C0F4
:100A500010F024C011F025C012F012002B50800BB2
:100A6000386E2B502B243F6E2AAE39EF05F03BEF4A
:100A700005F03CEF05F03F803F50D8B442EF05F061
:100A800044EF05F058EF05F03F28D8A44AEF05F0F1
:100A90004CEF05F054EF05F0000E286E000E296EA5
:100AA000000E2A6E000E2B6E2A8E2B6A60EF05F068
:100AB000000E286E000E296E000E2A6E000E2B6EA0
:100AC0002F50800B381A2F502F24406E2EAE6BEF14
:100AD00005F06DEF05F06EEF05F040804050D8B4A2
:100AE00074EF05F076EF05F08AEF05F04028D8A402
:100AF0007CEF05F07EEF05F086EF05F0000E2C6E22
:100B0000000E2D6E000E2E6E000E2F6E2E8E2F6A92
:100B100092EF05F0000E2C6E000E2D6E000E2E6E64
:100B2000000E2F6E2C502D102E102F10D8A49BEFDE
:100B300005F09DEF05F0B5EF05F0000E286E000EF4
:100B4000296E000E2A6E000E2B6E800E2A127F0E6A
:100B50002B1238502B1228C028F029C029F02AC0A7
:100B60002AF02BC02BF0F5EF06F03F50D8A4BBEFD6
:100B700005F0BDEF05F0C7EF05F0000E286E000E82
:100B8000296E000E2A6E000E2B6EF5EF06F0405017
:100B90003FC030F0316A305E000E315A7F0E302493
:100BA000396E000E31203A6E28C034F029C035F07D
:100BB0002AC036F02BC037F0000E286E000E296ECA
:100BC000000E2A6E000E2B6E000E3B6E000E3C6E69
:100BD000000E3D6E000E3E6E406A27EF06F040505C
:100BE000D8B4F5EF05F0F7EF05F00EEF06F0D8906A
:100BF0003436353636363736D890283629362A36C2
:100C00002B363EAE06EF06F008EF06F009EF06F0D1
:100C10002880D8903B363C363D363E362C50345CEE
:100C20002D5035582E5036582F503758D8A01BEF1E
:100C300006F01DEF06F026EF06F03E8C2C50345ED9
:100C40002D50355A2E50365A2F50375A402A190EE9
:100C500040642DEF06F02FEF06F0EFEF05F0345073
:100C6000351036103710D8B438EF06F03AEF06F0EA
:100C700052EF06F03B8052EF06F0D8902836293626
:100C80002A362B363EAE47EF06F049EF06F04AEF24
:100C900006F02880D8903B363C363D363E36390645
:100CA000D8A03A062AAE57EF06F059EF06F03DEF0E
:100CB00006F0406A3EAE5FEF06F061EF06F085EFAA
:100CC00006F0FF0E3B14306EFF0E3C14316EFF0E2B
:100CD0003D14326E7F0E3E14336E305031103210A0
:100CE0003310D8B476EF06F078EF06F07CEF06F01C
:100CF000010E406E85EF06F028A081EF06F083EF2D
:100D000006F085EF06F078EF06F04050D8B48BEF90
:100D100006F08DEF06F0B1EF06F0010E2826000E6A
:100D200029222A222B222BA098EF06F09AEF06F018
:100D3000B1EF06F028C030F029C031F02AC032F0FF
:100D40002BC033F03334333232323132303230C0B0
:100D500028F031C029F032C02AF033C02BF0394AD4
:100D60003A2A3ABEBCEF06F03A5008E13928D8A03A
:100D7000BCEF06F0BEEF06F0C9EF06F0000E3A6ECB
:100D80003968000E286E000E296E000E2A6E000EC5
:100D90002B6E3ABED6EF06F03A5006E13904D8B0D1
:100DA000D4EF06F0D6EF06F0E3EF06F0000E3A6E51
:100DB000000E396E000E286E000E296E000E2A6E8F
:100DC000000E2B6E386A39C03FF03FA0EAEF06F004
:100DD000ECEF06F0EFEF06F02A8EF0EF06F02A9E19
:100DE000D8903F302B6EA9EF05F01200096E095024
:100DF000D8B4FDEF06F0FFEF06F021EF07F004BED8
:100E000006EF07F004EF07F021EF07F001C005F04F
:100E100002C006F003C007F004C008F0051E061E5D
:100E2000071E081E052A000E06220722082205C0FA
:100E30000BF006C00CF007C00DF008C00EF029EF53
:100E400007F001C00BF002C00CF003C00DF004C0AD
:100E50000EF00150021003100410D8A432EF07F076
:100E600034EF07F03EEF07F0000E016E000E026E49
:100E7000000E036E000E046ECFEF07F0960E0A6EA2
:100E800048EF07F00A2AD8900E320D320C320B329E
:100E9000000E0B14056E000E0C14066E000E0D14E1
:100EA000076EFE0E0E14086E05500610071008108F
:100EB000D8A45DEF07F05FEF07F042EF07F06DEFAA
:100EC00007F00A2A010E0B26000E0C220D220E221C
:100ED000D8900E320D320C320B32000E0B14056E10
:100EE000000E0C14066E000E0D14076EFF0E0E148D
:100EF000086E0550061007100810D8A482EF07F0FE
:100F000084EF07F061EF07F08CEF07F00A06D89046
:100F10000B360C360D360E360DBE91EF07F093EF03
:100F200007F09BEF07F0020E0A6099EF07F09BEFC6
:100F300007F086EF07F00AB0A0EF07F0A2EF07F086
:100F4000A3EF07F00D9ED8900A320AC005F0066A9A
:100F5000076A086A05C008F0076A066A056A05504C
:100F60000B1206500C1207500D1208500E120950A9
:100F7000D8B4BDEF07F0BFEF07F0C7EF07F004BE2E
:100F8000C6EF07F0C4EF07F0C7EF07F00E8E0BC0F7
:100F900001F00CC002F00DC003F00EC004F012000E
:100FA000000E0114096E000E02140A6E800E031466
:100FB0000B6E7F0E04140C6E09500A100B100C10EF
:100FC000D8A4E5EF07F0E7EF07F0EFEF07F0000E2A
:100FD000016E000E026E000E036E000E046E000E17
:100FE0000514096E000E06140A6E800E07140B6EAF
:100FF0007F0E08140C6E09500A100B100C10D8A4A8
:1010000004EF08F006EF08F00EEF08F0000E056E92
:10101000000E066E000E076E000E086E04AE13EF93
:1010200008F015EF08F01EEF08F0016C021ED8B0B2
:10103000022A031ED8B0032A800E045608AE23EFFE
:1010400008F025EF08F02EEF08F0056C061ED8B06A
:10105000062A071ED8B0072A800E0856000E011A6D
:10106000000E021A000E031A800E041A000E051A52
:10107000000E061A000E071A800E081A0550015CB1
:10108000065002580750035808500458D8B04BEF88
:1010900008F04DEF08F050EF08F0D89051EF08F04D
:1010A000D880120019EC09F009EC0BF0CBEC0AF037
:1010B000F0EC0AF000EC0BF009EC0BF02F0E086ED0
:1010C000A0EC0AF0BEEC09F01AEC0AF00009D8B462
:1010D0006CEF08F06EEF08F07DEF08F036EC0AF0E8
:1010E0000009D8A476EF08F078EF08F07DEF08F05B
:1010F000FBEC0AF08B888AEF08F036EC0AF0000966
:10110000D8B485EF08F087EF08F08AEF08F08B8AF3
:1011100005EC0BF057BE96EF08F0575009E11F0E93
:10112000565CD8A096EF08F098EF08F0B4EF08F0FE
:101130008B84060E496E130E486EAE0EE82EFED757
:10114000482EFCD7492EFAD705EC0BF08A8C09EC17
:101150000BF0010E076E010E6EEC0AF0150E086E14
:10116000A0EC0AF0B2EF08F052EC0AF00009D8B493
:10117000BCEF08F0BEEF08F0CCEF08F00FEC0BF07E
:101180000009D8B4C6EF08F0C8EF08F0CCEF08F0BB
:10119000564A572A62EF08F08B9462EF08F0FEEF90
:1011A0003FF0046E04C003F0010E0316033A034639
:1011B0008A500318DF0B03188A6E04C003F0D8901E
:1011C0000332010E0316033A8A500318EF0B03187B
:1011D0008A6E04C003F0D8900332D8900332010E17
:1011E00003160346034603468A500318F70B0318F9
:1011F0008A6E04C003F0D8900332D8900332D8909E
:101200000332010E0316034603468A500318FB0BF4
:1012100003188A6E8A80000E026E050E016EDFECE6
:101220000AF08A90000E026E050E016EDFEC0AF0E5
:10123000120093929390939A9398939693948A9290
:101240008A90000E026E320E016E89EC0AF0076A77
:10125000030ED1EC08F0000E026E050E016E89EC53
:101260000AF0072A020E076438EF09F03AEF09F096
:1012700028EF09F0020ED1EC08F0280E056E000EE2
:10128000B6EC0AF00C0E056E000EB6EC0AF0010E7C
:10129000056E000EB6EC0AF0000E026E020E016E34
:1012A00089EC0AF0060E056E000EB6EC0AF012008C
:1012B000476E475096EC09F001C045F002C046F079
:1012C000000E136E000E146EA00E156E400E166EFC
:1012D00045C001F046C002F0036A046A000EF6EC55
:1012E00006F001C00FF002C010F003C011F004C0FE
:1012F00012F01BEC03F00FC028F010C029F011C051
:101300002AF012C02BF0000E2C6EC00E2D6E7F0E38
:101310002E6E440E2F6E2EEC05F028C041F029C031
:1013200042F02AC043F02BC044F01200056E070EB5
:1013300005649DEF09F09FEF09F0A5EF09F0000E9D
:10134000026E000E016EBDEF09F0C30EC216054419
:10135000E846FC0BC212060EE82EFED700D0C28271
:10136000C2B2B5EF09F0B7EF09F0B0EF09F0C45021
:10137000036EC350016E03C002F01200070E58EC5A
:1013800009F041C052F042C053F043C054F044C091
:1013900055F0060E58EC09F041C04EF042C04FF037
:1013A00043C050F044C051F0050E58EC09F041C064
:1013B0004AF042C04BF043C04CF044C04DF0120024
:1013C0001A0EF66E160EF76E000EF86E00EE59F05D
:1013D00010EE04F00900F5CFEEFFE550E150FAE120
:1013E00000EE4AF00F0EEE6AE806FDE1000EF86E20
:1013F000060EF76E000152EF08F0076E0C0E07188C
:10140000D8A405EF0AF007EF0AF014EF0AF0010E76
:10141000056E000EB6EC0AF0000E026E020E016EB2
:1014200089EC0AF019EF0AF007C005F0010EB6ECDE
:101430000AF01200000E016E000E026E000E036E26
:10144000400E046E52C005F053C006F054C007F0C1
:1014500055C008F0D0EC07F0D8B031EF0AF034EF07
:101460000AF0010E35EF0AF0000E12004EC001F036
:101470004FC002F050C003F051C004F0000E056EE2
:10148000000E066E000E076E400E086ED0EC07F0E0
:10149000D8B04DEF0AF050EF0AF0010E51EF0AF00C
:1014A000000E1200000E016E000E026E000E036EA2
:1014B000400E046E4AC005F04BC006F04CC007F069
:1014C0004DC008F0D0EC07F0D8B069EF0AF06CEF2F
:1014D0000AF0010E6DEF0AF0000E12000E6E59C0F8
:1014E0000AF05AC00BF05BC00CF05CC00DF007C0F6
:1014F00008F0FF0E082608500A0FD96EDA6ADF508E
:101500000E24096E09048009056E000EB6EC0AF07F
:10151000120092EF0AF0030E036E980EE82EFED72B
:10152000032EFCD70106D8A00206012806E10228F6
:10153000D8A49DEF0AF09FEF0AF08BEF0AF012009B
:10154000A9EF0AF008C0F6FF0800F550FDEC09F01D
:10155000082A08C0F6FF0800F5500009D8A4B3EF28
:101560000AF0B5EF0AF0A2EF0AF01200066E06B01C
:1015700002D08A9201D08A8205380F0BD1EC08F094
:1015800005500F0BD1EC08F0000E026E3C0E016E00
:10159000DFEC0AF01200968096829684050EC16EEA
:1015A000C08EC050C70B1009C06EC050F80B0209A6
:1015B000C06EC250C30B1409C26EC2801200E2EFAB
:1015C0000AF000D00106D8A00206012806E1022890
:1015D000D8A4EDEF0AF0EFEF0AF0E1EF0AF0120005
:1015E0000F0E9516CF0E94163F0E93168B8A8B987E
:1015F0008A9E8A9C12008C868C94010E586E120072
:10160000F30E95168C968C9412008C968C84586AE6
:1016100012000C0EFDEC09F012000040145458505A
:021620001200B6
:047FFC00E0EF09F0B9
:020000040020DA
:08000000FFFFFFFFFFFFFFFF00
:020000040030CA
:0E000000FF081F1EFF0181FF0FC00FE00F4021
:00000001FF
